:100000000C94B5000C94D2000C94D2000C94D20045
:100010000C94D2000C94D2000C94D2000C94D20018
:100020000C94D2000C94D2000C94D2000C94D20008
:100030000C94D2000C94D2000C94D2000C94D200F8
:100040000C94D2000C94D2000C94D2000C94D200E8
:100050000C94D2000C94D2000C94D2000C94D200D8
:100060000C9403040C94D2006E616E00696E6600FD
:1000700000407A10F35A00A0724E18090010A5D45F
:10008000E80000E87648170000E40B54020000CABC
:100090009A3B000000E1F505000080969800000002
:1000A00040420F000000A086010000001027000061
:1000B0000000E803000000006400000000000A00E7
:1000C000000000000100000000002C76D888DC67EA
:1000D0004F0823DFC1DFAE59E1B1B796E5E3E45342
:1000E000C63AE651997696E8E6C28426EB898C9B5F
:1000F00062ED407C6FFCEFBC9C9F40F2BAA56FA5FF
:10010000F490055A2AF75C936B6CF9676DC11BFC80
:10011000E0E40D47FEF520E6B500D0ED902E03009B
:10012000943577050080841E080000204E0A0000E8
:1001300000C80C333333330F986E12831141EF8DA7
:100140002114893BE65516CFFEE6DB18D1844B38E7
:100150001BF77C1D901DA4BBE424203284725E2218
:100160008100C9F124ECA1E53D2711241FBECFEF8A
:10017000D8E0DEBFCDBF12E0A0E0B1E0E6EAF6E1F4
:1001800002C005900D92A431B107D9F722E0A4E195
:10019000B2E001C01D92A73DB207E1F70E94CA0775
:1001A0000C94510B0C940000CF92DF92EF92FF92CF
:1001B00047E250E0389A3998E8E8F2E0178281E0A7
:1001C00086835183408328E230E03383228386E2B2
:1001D00090E09583848360E2C62E61EDD62EEE24F6
:1001E000EA94FE2CC486D586E686F7863A9A3B9832
:1001F00062E0678B63E0668B518B408B338B228B85
:10020000958B848B88E095EDAFEFBFEF848F958F52
:10021000A68FB78F579A569827E027A326E026A3E4
:100220002AE230E031A320A32BE230E033A322A363
:1002300029E230E035A324A384A795A7A6A7B7A7F2
:10024000259A249825E027AB24E026AB24E230E071
:1002500031AB20AB25E230E033AB22AB23E230E020
:1002600035AB24AB84AF95AFA6AFB7AFFF90EF909F
:10027000DF90CF90089590917C00907F90937C00C8
:1002800090917C00892B80937C0080917A0080641F
:1002900080937A0080917A0084FDFCCF20917800D1
:1002A0003091790090917A00906190937A00C90121
:1002B0000895F894EAE7F0E0808187608083ACE7F6
:1002C000B0E08C9180648C93808180688083808191
:1002D0008064808378940895CF92DF92EF92FF92AA
:1002E000CF93DF9320E1829FC0011124EC01C85716
:1002F000DD4F9E81EA81FB81AC81BD81808121E05F
:1003000030E0A9010F8002C0440F551F0A94E2F7A4
:10031000742F709587238083808102C0220F331F42
:100320009A95E2F7822B80838C9190E0822393232D
:10033000892BD1F7C42F68E1C12CD12C76018081A3
:100340008C2B8083CC0CDD1CEE1CFF1C8081872352
:1003500080838C9190E082239323892B29F08FEF67
:10036000C81AD80AE80AF80A615049F78081482B70
:100370004083808178237083C701B6018058DF9164
:10038000CF91FF90EF90DF90CF900895CF92DF92C2
:10039000EF92FF921F93CF93DF93182FD62F6623F0
:1003A00001F1C0E0C12CD12C7601812F0E946C019B
:1003B000C60ED71EE81EF91ECF5FCD13F6CF2D2F28
:1003C00030E040E050E0C701B6010E94F907CA01E1
:1003D000B901DF91CF911F91FF90EF90DF90CF9007
:1003E0000895C12CD12C7601EACF2F923F924F92E3
:1003F0005F926F927F928F929F92AF92BF92CF92B5
:10040000DF92EF92FF920F931F93CF93DF9308E851
:1004100012E0A12CB12C8FE0482E512C612C712CB4
:1004200096E3892E91E0992EDA2D3A2C2B2CF801A7
:100430001086118612861386CFE0C12CD12C76014E
:100440008D2F0E946C01C60ED71EE81EF91EC150EA
:10045000B9F7C701B601A30192010E94F907F8019B
:1004600020873187428753875F934F933F932F9322
:100470002F923F929F928F920E94830AFFEFAF1AB2
:10048000BF0A005F1F4F8DB79EB708960FB6F8944E
:100490009EBF0FBE8DBF94E0A916B10429F6DF916F
:1004A000CF911F910F91FF90EF90DF90CF90BF9071
:1004B000AF909F908F907F906F905F904F903F9004
:1004C0002F900895CF92DF92EF92FF92CF93DF9318
:1004D000C82F0E946C016B017C018C2F0E946C0163
:1004E000DC01CB018C0D9D1DAE1DBF1DB695A795E2
:1004F0009795879520E1C29FE0011124C857DD4FF1
:10050000C884D984EA84FB84BC01CD016C197D09BF
:100510008E099F090E94C6086B017C016C857D8550
:100520008E859F850E94C6089B01AC01C701B6015C
:100530000E945208DF91CF91FF90EF90DF90CF9013
:100540000895CF93DF93EC0180E00E9462026883FC
:1005500079838A839B8381E00E9462026C837D831E
:100560008E839F8382E00E946202688779878A87F0
:100570009B8783E00E9462026C877D878E879F87BE
:10058000DF91CF910895389A409A08954098089540
:10059000399A419A08954198089587B1836087B93F
:1005A00088B1836088B9089588B18C7F88B908952F
:1005B0009091C00095FFFCCF8093C6000895809174
:1005C000C00087FFFCCF8091C60008951092C5003F
:1005D00080E18093C400E0ECF0E080818260808361
:1005E00086E08093C20088E18093C1000895CF9295
:1005F000DF92EF92FF920F931F93CF93DF938C01C3
:10060000FC0183818F9382818F9381818F9380817D
:100610008F931F921F928CE491E09F938F930E947F
:10062000830AE80124967801F0E1EF0EF11C8DB702
:100630009EB708960FB6F8949EBF0FBE8DBF01E01F
:1006400010E08CE4C82E81E0D82E8CE290E00E946D
:10065000990A888199812A813B8124963F932F931F
:100660009F938F931F930F93DF92CF920E94830AE1
:100670000F5F1F4FEDB7FEB738960FB6F894FEBF69
:100680000FBEEDBFCE15DF0501F789E491E09F9322
:100690008F930E94830A0F900F90DF91CF911F914B
:1006A0000F91FF90EF90DF90CF9008958093C80254
:1006B0008091C8021F928F9388E591E09F938F935A
:1006C0000E94830A0F900F900F900F900895AF92A1
:1006D000BF92CF92DF92EF92FF920F931F93CF932F
:1006E000DF93CDB7DEB764970FB6F894DEBF0FBEC9
:1006F000CDBF8091C8028F3FE9F08CED91E00E9460
:10070000A00AE091C802F0E0E85EFD4F808180938E
:10071000BB0064960FB6F894DEBF0FBECDBFDF916D
:10072000CF911F910F91FF90EF90DF90CF90BF90EE
:10073000AF900895109218028FE691E00E94A00AEF
:1007400088E792E00E94A10280E991E00E94A00A5D
:1007500008E712E0E12CF12CCE0101965C018BEA56
:10076000C82E81E0D82EF8018081918122813381C9
:100770000C5F1F4FFFEFEF1AFF0A3F932F939F93DA
:100780008F93FF92EF92DF92CF92BF92AF920E942F
:10079000D00AB50188E192E00E94350A0FB6F894BC
:1007A000DEBF0FBECDBF94E0E916F104E1F688EBA1
:1007B00091E00E94A00AE8E1F2E001900020E9F750
:1007C0003197E851F240E093BB00A3CF909317021A
:1007D0008093160270931502609314020895F894A2
:1007E000880F8093BA0085EC8093BC0087EF91E07E
:1007F0000E94A00A78940895F8941092BC00109278
:10080000BA00789408951F920F920FB60F92112498
:100810002F933F934F935F936F937F938F939F9308
:10082000AF93BF93EF93FF938091B900887F803897
:1008300051F1E8F0883A11F0883B09F5E091140293
:10084000F0911502099585EC8093BC00FF91EF9122
:10085000BF91AF919F918F917F916F915F914F91D8
:100860003F912F910F900FBE0F901F9018958111FF
:1008700006C01092BC0085EC8093BC00E7CF85ECED
:100880008093BC00E3CF8091BB00E0911602F09111
:100890001702099585EC8093BC00D8CFA3E1B0E0A6
:1008A000E4E5F4E00C941B086C014B012A01FC0107
:1008B00017821682838181FF43C3AE014F5F5F4F72
:1008C0003A01F6019381F40193FD859193FF8191A3
:1008D0004F01882309F430C3853239F493FD8591A3
:1008E00093FF81914F01853239F4B60190E00E9467
:1008F0004B0A52012501E5CF10E0F12C20E0203217
:10090000A0F48B3269F030F4803259F0833269F40C
:1009100020612CC08D3239F0803339F4216026C03B
:100920002260246023C0286021C027FD27C030ED4D
:10093000380F3A3078F426FF06C0FAE01F9F300DDA
:100940001124132F13C04AE0F49E300D1124F32E0E
:1009500020620CC08E3221F426FDEEC2206406C057
:100960008C3611F4206802C0883641F4F40193FDFE
:10097000859193FF81914F018111C1CF9BEB980F1E
:10098000933018F42061805E06C09BE9980F933085
:1009900008F071C12F7E26FF16E02F73322E8536A8
:1009A00019F42064322E08C0863621F4F22FF06844
:1009B0003F2E02C01111115037FE07C01C3350F4F6
:1009C000EE24E394E10E27E00BC0183038F027E066
:1009D00017E005C027E04CE3E42E02C0212FE12CF4
:1009E000520144E0A40EB11CF20160817181828148
:1009F00093810E2DA3010E9452092C01098100FF51
:100A000002C003FF07C031FC08C032FE09C030E25B
:100A1000232E07C02DE2222E04C09BE2292E01C006
:100A2000212C802F8C7019F0211068C2A8C237FECB
:100A30000FC0E40C04FF04C08A81813309F4EA94F6
:100A40001E1474F5F8E0FE1578F588E0E82E2CC049
:100A500036FC2AC0812F90E0841595059CF02CEF80
:100A600042162FEF520674F0432D4068342E0AC010
:100A7000E2E0F0E0EC0FFD1FE10FF11D808180331B
:100A800019F411501111F4CF37FE0EC0EE24E39487
:100A9000E10E812F90E0481659062CF4141904C079
:100AA000EE24E39401C010E037FE06C014141504D0
:100AB00034F4C201019605C085E090E002C081E0F7
:100AC00090E021100196112331F0212F30E02F5FAB
:100AD0003F4F820F931F2F2D30E08217930714F49E
:100AE000F81A01C0F12C832D897049F4FF2039F0E8
:100AF000B60180E290E00E944B0AFA94F7CF2220E0
:100B000029F0B601822D90E00E944B0A33FC09C007
:100B1000FF2039F0B60180E390E00E944B0AFA947E
:100B2000F7CF37FE5AC0942D852D57FE02C090E0B6
:100B300080E0292E382E20E030E0A2014E19510924
:100B40005D874C87A201421953095F874E87612F49
:100B500070E044275527461B570B598B488B5FEF96
:100B60002516350649F4B6018EE290E02A8B3B8BC0
:100B70000E944B0A3B892A89421453046CF04C852D
:100B80005D854215530544F4EE85FF85E20FF31FA2
:100B9000E60DF71D818101C080E351E0251A31087F
:100BA0002F5F3F4F48895989241635064CF0B6010E
:100BB00090E02A8B3B8B0E944B0A2A893B89CFCF3E
:100BC0002414350439F49A81963318F4953311F4CA
:100BD00004FF81E3B60190E04BC08A81813309F0C4
:100BE0000F7EB60190E00E944B0A111105C034FC43
:100BF00018C085E690E017C0B6018EE290E00E9432
:100C00004B0A82E0EE24E394E80EF301E80FF11DB5
:100C10008081B60190E00E944B0A11508E2D91F711
:100C2000E6CF85E490E0B6010E944B0A57FC05C070
:100C30004114510439F404FF05C051944194510802
:100C40008DE201C08BE2B60190E00E944B0A80E386
:100C50009AE0491651042CF08F5F5AE0451A51086A
:100C6000F7CFB60190E00E944B0AB601C201C096D0
:100C70000E944B0A57C1833631F0833779F08335B0
:100C800009F058C021C05201E2E0AE0EB11CF201E1
:100C90008081898301E010E0230114C05201F2E059
:100CA000AF0EB11CF2014080518026FF03C0612FBE
:100CB00070E002C06FEF7FEFC2012A8B0E94400AF2
:100CC0008C012A892F7715C05201F2E0AF0EB11CBA
:100CD000F2014080518026FF03C0612F70E002C006
:100CE0006FEF7FEFC2012A8B0E942A0A8C012A89AA
:100CF0002068322E23FD1AC08F2D90E008171907A7
:100D0000A8F4B60180E290E00E944B0AFA94F4CF76
:100D1000F20137FC859137FE81912F01B60190E0F9
:100D20000E944B0AF110FA940150110901151105A6
:100D300079F7F8C0843611F0893659F5520127FF4A
:100D400009C0F4E0AF0EB11CF201608171818281B3
:100D500093810AC0F2E0AF0EB11CF2016081718193
:100D6000072E000C880B990B2F76322E97FF09C0A7
:100D700090958095709561957F4F8F4F9F4F20681C
:100D8000322E2AE030E0A3010E94F30AE82EE61892
:100D90003FC0022F853721F40F7E2AE030E01DC0CE
:100DA000097F8F3691F018F4883559F0C5C0803727
:100DB00019F0883711F0C0C0006104FF09C0046059
:100DC00007C024FF08C0066006C028E030E005C068
:100DD00020E130E002C020E132E0520107FF09C00B
:100DE000F4E0AF0EB11CF2016081718182819381C8
:100DF00008C0F2E0AF0EB11CF2016081718180E0A9
:100E000090E0A3010E94F30AE82EE6180F77302E37
:100E100036FE0BC0332D3E7FE11650F434FE0AC07F
:100E200032FC08C0332D3E7E05C00E2D332D03C08D
:100E30000E2D01C0012F34FF0CC0FE01EE0DF11D7F
:100E40008081803311F4397E08C032FF05C00E5F07
:100E500004C0832F867809F00F5F33FD13C030FF85
:100E600006C01E2D0F1518F41F0D101B0F2D0F158A
:100E700068F4B60180E290E03B8B0E944B0A0F5F62
:100E80003B89F5CF0F1510F4F01A01C0F12C34FF97
:100E900012C0B60180E390E03B8B0E944B0A3B8975
:100EA00032FF17C031FD03C088E790E002C088E53B
:100EB00090E0B6010CC0832F867859F031FF02C054
:100EC0008BE201C080E237FD8DE2B60190E00E9426
:100ED0004B0AE11638F4B60180E390E00E944B0A19
:100EE0001150F7CFEA94F301EE0DF11D8081B601A8
:100EF00090E00E944B0AE110F5CF14C0F4E0FF151A
:100F000058F584E0F81A33FE1EC0211026C003FFF6
:100F10002AC008E610E0F32DF0713F2EF80184910D
:100F2000811124C0FF2009F4E5CCB60180E290E0F5
:100F30000E944B0AFA94F6CFF6018681978126C06B
:100F40008FEF9FEF23C0B60180E290E00E944B0A32
:100F5000FA94F110F8CFD9CFF12CB601822D90E0A0
:100F60000E944B0AD4CF0CE610E0D5CF311080524E
:100F7000B60190E00E944B0A0F5F1F4FCFCF23E0D6
:100F80002F1510F483E0BECFF12CC1CF6396E2E1C0
:100F90000C9437080E94E6028CE191E09093D40211
:100FA0008093D3028EE091E09093D2028093D1029D
:100FB00084B1836084B9289A29980E94D4008AE277
:100FC00091E00E94A00A2AEA36EE86E991E02150DB
:100FD000304080409040D9F700000E94F50167E65C
:100FE00073E086E593E00E94E60384E00E94EF034D
:100FF000FFCFA1E21A2EAA1BBB1BFD010DC0AA1F29
:10100000BB1FEE1FFF1FA217B307E407F50720F071
:10101000A21BB30BE40BF50B661F771F881F991FEC
:101020001A9469F760957095809590959B01AC0135
:10103000BD01CF0108952F923F924F925F926F9220
:101040007F928F929F92AF92BF92CF92DF92EF9258
:10105000FF920F931F93CF93DF93CDB7DEB7CA1BD9
:10106000DB0B0FB6F894DEBF0FBECDBF09942A8804
:10107000398848885F846E847D848C849B84AA84AC
:10108000B984C884DF80EE80FD800C811B81AA8139
:10109000B981CE0FD11D0FB6F894DEBF0FBECDBF04
:1010A000ED0108950E9466080C9418090E94110928
:1010B00058F00E940A0940F029F45F3F29F00C948F
:1010C000010951110C944C090C9407090E9429093B
:1010D00068F39923B1F3552391F3951B550BBB2767
:1010E000AA2762177307840738F09F5F5F4F220FAC
:1010F000331F441FAA1FA9F335D00E2E3AF0E0E8A3
:1011000032D091505040E695001CCAF72BD0FE2FEC
:1011100029D0660F771F881FBB1F26173707480780
:10112000AB07B0E809F0BB0B802DBF01FF27935838
:101130005F4F3AF09E3F510578F00C9401090C94F2
:101140004C095F3FE4F3983ED4F386957795679515
:10115000B795F7959F5FC9F7880F911D969587956D
:1011600097F90895E1E0660F771F881FBB1F62178C
:1011700073078407BA0720F0621B730B840BBA0B4A
:10118000EE1F88F7E0950895E89409C097FB3EF4B8
:1011900090958095709561957F4F8F4F9F4F9923C4
:1011A000A9F0F92F96E9BB279395F6958795779542
:1011B0006795B795F111F8CFFAF4BB0F11F460FF02
:1011C0001BC06F5F7F4F8F4F9F4F16C0882311F05A
:1011D00096E911C0772321F09EE8872F762F05C06E
:1011E000662371F096E8862F70E060E02AF09A9509
:1011F000660F771F881FDAF7880F9695879597F9FE
:10120000089597F99F6780E870E060E008959FEF88
:1012100080EC089500240A9416161706180609068D
:10122000089500240A94121613061406050608955C
:10123000092E0394000C11F4882352F0BB0F40F4E4
:10124000BF2B11F460FF04C06F5F7F4F8F4F9F4F24
:10125000089557FD9058440F551F59F05F3F71F0A6
:101260004795880F97FB991F61F09F3F79F087950D
:101270000895121613061406551FF2CF4695F1DF96
:1012800008C0161617061806991FF1CF8695710526
:10129000610508940895E894BB2766277727CB015A
:1012A00097F90895283008F027E03327DA01990FDD
:1012B000311D87FD916000966105710539F432603A
:1012C0002E5F3D9330E32A95E1F708959F3F30F07C
:1012D00080387105610509F03C5F3C5F3D939130BA
:1012E00008F08068911DDF93CF931F930F93FF92B7
:1012F000EF92192F987F9695E92F96959695E90F7D
:10130000FF27E653FF4F99273327EE24FF24A70139
:10131000E70105900894079428F4360FE71EF81E9D
:10132000491F511D660F771F881F991F0694A1F74B
:101330000590079428F4E70EF81E491F561FC11D9B
:10134000770F881F991F661F0694A1F705900794D1
:1013500028F4F80E491F561FC71FD11D880F991F6B
:10136000661F771F0694A1F70590079420F4490F94
:10137000561FC71FD81F990F661F771F881F069417
:10138000A9F784911095177041F0D695C795579598
:101390004795F794E7941A95C1F7E0E7F0E0689471
:1013A0001590159135916591959105907FE2739512
:1013B000E118F10A430B560BC90BD009C0F7E10C39
:1013C000F11E431F561FC91FD01D7EF4703311F448
:1013D0008A95E6CFE894015030F0080F0AF4002710
:1013E000021708F4202F2395022F7A3328F079E38F
:1013F0007D932A95E9F710C07D932A9589F6069486
:1014000097956795379517951794E118F10A430B4F
:10141000560BC90BD00998F023957E9173957A33BA
:1014200008F070E37C932013B8F77E9170617D9390
:1014300030F0839571E37D9370E32A95E1F71124F1
:10144000EF90FF900F911F91CF91DF91992787FD2A
:1014500090950895FC010590615070400110D8F7F7
:10146000809590958E0F9F1F0895FB01DC010D90D4
:101470000020E9F7119701900D920020E1F70895FF
:10148000FC016150704001900110D8F78095909553
:101490008E0F9F1F08950F931F93CF93DF93FB0130
:1014A000238121FD03C08FEF9FEF28C022FF16C0CC
:1014B00046815781248135814217530744F4A08126
:1014C000B1819D012F5F3F4F318320838C93268113
:1014D00037812F5F3F4F3783268310C0EB01092FE1
:1014E000182F0084F185E02D0995892BE1F68E8176
:1014F0009F8101969F838E83812F902FDF91CF91C3
:101500001F910F910895A0E0B0E0E9E8FAE00C9493
:101510002B08AE014B5F5F4FFA0161917191AF01F2
:101520008091D3029091D4020E944E04E2E00C9488
:1015300047086091D3027091D4020E944B0A08952B
:101540000F931F93CF93DF93E091D302F091D402D6
:10155000238121FF1BC08C01D0E0C0E0F801819104
:101560008F016091D3027091D402DB011896ED9146
:10157000FC911997882331F00995892B79F3DFEFD6
:10158000CFEFECCF8AE00995892B19F08FEF9FEF11
:1015900002C08D2F9C2FDF91CF911F910F91089545
:1015A000AEE0B0E0E6EDFAE00C9429080D891E8962
:1015B00086E08C831A8309838FEF9FE79E838D8358
:1015C000AE01475E5F4F6F89788DCE0101960E9414
:1015D0004E042F813885F801E20FF31F10822E96FA
:1015E000E4E00C944508FA01AA27283051F1203193
:1015F00081F1E8946F936E7F6E5F7F4F8F4F9F4FA7
:10160000AF4FB1E03ED0B4E03CD0670F781F891FE8
:101610009A1FA11D680F791F8A1F911DA11D6A0FB6
:10162000711D811D911DA11D20D009F468943F9169
:101630002AE0269F11243019305D3193DEF6CF0168
:101640000895462F4770405D4193B3E00FD0C9F72E
:10165000F6CF462F4F70405D4A3318F0495D31FD9B
:101660004052419302D0A9F7EACFB4E0A6959795EE
:10167000879577956795BA95C9F7009761057105C4
:1016800008959B01AC010A2E06945795479537950E
:101690002795BA95C9F7620F731F841F951FA01D68
:0616A0000895F894FFCF4D
:1016A6000000000300000000D802DF020000000076
:1016B6000001000000000000DF0200000000000240
:1016C60000000000D802000000004465626F756EDD
:1016D60063652E2E2E00746172696E672073656EC7
:1016E600736F7225643A256C750A0D0073656E7307
:1016F6006F7225643A25660041726475696E6F20C3
:1017060072656365697665643A2025640D0A00434F
:101716006F6C6C656374696E6720466F72636520D3
:101726002D2D2D2D2D2D2D2D2E2E2E2E2E200D0038
:10173600436F6C6C6563746564212121212121212D
:10174600212121212D2D2D3E200D0073656E736FF5
:101756007225643A25662C005265616420746F20F8
:101766007472616E736D6974202D2D2D2D2D2D2DA6
:101776002D3E20544F20525049200D005472616E68
:10178600736D697474696E67206279746573207409
:101796006F205069200D0049324320696E697469D3
:1017A600616C697A6174696F6E20646F6E652E2E46
:0417B6002E0D0000F4
:00000001FF
