:100000000C9434000C9451000C9451000C94510049
:100010000C9451000C9451000C9451000C9451001C
:100020000C9451000C9451000C9451000C9451000C
:100030000C9451000C9451000C9451000C945100FC
:100040000C9451000C9451000C9451000C945100EC
:100050000C9451000C9451000C9451000C945100DC
:100060000C94BE010C94510011241FBECFEFD8E0B8
:10007000DEBFCDBF11E0A0E0B1E0E4E5FAE002C0F0
:1000800005900D92AA39B107D9F721E0AAE9B1E0AC
:1000900001C01D92A53BB207E1F70E9409020C9432
:1000A00028050C9400008093AE018091AE011F9250
:1000B0008F938CE291E09F938F930E9426020F9082
:1000C0000F900F900F9008958091AE018F3F29F10E
:1000D0008091AE01E0910001F0910101E80FF11D66
:1000E0008081282F082E000C330B3F938F9383E4DD
:1000F00091E09F938F930E9426028091AE01E09140
:100100000001F0910101E80FF11D80818093BB0097
:100110000F900F900F900F900895A0910001B09153
:100120000101FD0101900020E9F73197EA1BFB0B6B
:10013000E093BB00089590917C00907F90937C00A9
:1001400090917C00892B80937C0080917A00806460
:1001500080937A0080917A0084FDFCCF2091780012
:100160003091790090917A00906190937A00C90162
:100170000895F894EAE7F0E0808187608083ACE737
:10018000B0E08C9180648C938081806880838081D2
:1001900080648083789408954098419A3199FECF85
:1001A00028E180E090E0DC01409A880F991FAA1FA7
:1001B000BB1F4098319B03C00196A11DB11D21506A
:1001C00099F7409A4098BC01CD0180580895CF938B
:1001D000DF93EC01389A39980E94CC0068837983C8
:1001E0008A839B8384E190E0A0E0B0E08C839D83D0
:1001F000AE83BF838EE190E0A0E0B0E0888799876E
:10020000AA87BB8788E290E0A0E0B0E08C879D875A
:10021000AE87BF87DF91CF9108950895389A409AAD
:10022000089540980895399A419A089541980895FB
:1002300087B1836087B988B1836088B9089588B130
:100240008C7F88B908959091C00095FFFCCF809372
:10025000C60008958091C00087FFFCCF8091C60042
:1002600008951092C50080E18093C400E0ECF0E0B6
:1002700080818260808386E08093C20088E18093E1
:10028000C1000895CF92DF92EF92FF920F931F93D8
:10029000CF93DF938C01FC0183818F9382818F93B5
:1002A00081818F9380818F931F921F928EE691E0C0
:1002B0009F938F930E942602E80124967801F0E133
:1002C000EF0EF11C8DB79EB708960FB6F8949EBF3F
:1002D0000FBE8DBF01E010E08EE6C82E81E0D82E63
:1002E0008CE290E00E943C02888199812A813B81C6
:1002F00024963F932F939F938F931F930F93DF9297
:10030000CF920E9426020F5F1F4FEDB7FEB73896BF
:100310000FB6F894FEBF0FBEEDBFCE15DF0501F797
:100320008BE791E09F938F930E9426020F900F908E
:10033000DF91CF911F910F91FF90EF90DF90CF90C1
:10034000089590939D0180939C0170939B0160930D
:100350009A010895F894880F8093BA0085EC8093F1
:10036000BC008EE791E00E94430278940895F894CF
:100370001092BC001092BA00789408951F920F92C8
:100380000FB60F9211242F933F934F935F936F9368
:100390007F938F939F93AF93BF93EF93FF9380913E
:1003A000B900887F803851F1E8F0883A11F0883B35
:1003B00009F5E0919A01F0919B01099585EC8093F4
:1003C000BC00FF91EF91BF91AF919F918F917F9171
:1003D0006F915F914F913F912F910F900FBE0F90B2
:1003E0001F901895811106C01092BC0085EC809377
:1003F000BC00E7CF85EC8093BC00E3CF8091BB00CD
:10040000E0919C01F0919D01099585EC8093BC00E1
:10041000D8CF0E9431018EE191E09093B201809398
:10042000B10180E191E09093B0018093AF0184B17C
:10043000836084B9289A299864E670E083E590E0A7
:100440000E94A10184E00E94AA01FFCFA0E0B0E0D9
:10045000ECE2F2E00C940105AE014B5F5F4FFA0154
:1004600061917191AF018091B1019091B2010E94AF
:100470007302E2E00C941D056091B1017091B2012C
:100480000E945B0408950F931F93CF93DF93E09135
:10049000B101F091B201238121FF1BC08C01D0E09A
:1004A000C0E0F80181918F016091B1017091B201BA
:1004B000DB011896ED91FC911997882331F009958D
:1004C000892B79F3DFEFCFEFECCF8AE00995892B09
:1004D00019F08FEF9FEF02C08D2F9C2FDF91CF91EE
:1004E0001F910F910895ACE0B0E0E9E7F2E00C94C1
:1004F000F1047C016B018A01FC0117821682838161
:1005000081FFBDC1CE0101964C01F7019381F60137
:1005100093FD859193FF81916F01882309F4ABC10D
:10052000853239F493FD859193FF81916F01853276
:1005300029F4B70190E00E945B04E7CF512C312CE5
:1005400020E02032A0F48B3269F030F4803259F090
:10055000833269F420612CC08D3239F0803339F454
:10056000216026C02260246023C0286021C027FDAE
:1005700027C030ED380F3A3078F426FF06C0FAE095
:100580005F9E300D1124532E13C08AE0389E300D2B
:100590001124332E20620CC08E3221F426FD6BC153
:1005A000206406C08C3611F4206802C0883641F4FD
:1005B000F60193FD859193FF81916F018111C1CF68
:1005C000982F9F7D9554933028F40C5F1F4FFFE3C5
:1005D000F9830DC0833631F0833771F0833509F02C
:1005E0005BC022C0F801808189830E5F1F4F4424C5
:1005F0004394512C540115C03801F2E06F0E711C68
:10060000F801A080B18026FF03C0652D70E002C014
:100610006FEF7FEFC5012C870E9450042C018301EE
:100620002C852F77222E17C03801F2E06F0E711C37
:10063000F801A080B18026FF03C0652D70E002C0E4
:100640006FEF7FEFC5012C870E9445042C012C859C
:100650002068222E830123FC1BC0832D90E04816C6
:100660005906B0F4B70180E290E00E945B043A942E
:10067000F4CFF50127FC859127FE81915F01B70139
:1006800090E00E945B0431103A94F1E04F1A510857
:100690004114510471F7E5C0843611F0893639F5FB
:1006A000F80127FF07C060817181828193810C5F0F
:1006B0001F4F08C060817181072E000C880B990BB9
:1006C0000E5F1F4F2F76722E97FF09C09095809571
:1006D000709561957F4F8F4F9F4F2068722E2AE053
:1006E00030E0A4010E949304A82EA81844C08537C6
:1006F00029F42F7EB22E2AE030E025C0F22FF97FB8
:10070000BF2E8F36C1F018F4883579F0B4C0803729
:1007100019F0883721F0AFC02F2F2061B22EB4FE20
:100720000DC08B2D8460B82E09C024FF0AC09F2FF6
:100730009660B92E06C028E030E005C020E130E028
:1007400002C020E132E0F801B7FE07C0608171818C
:10075000828193810C5F1F4F06C06081718180E0B0
:1007600090E00E5F1F4FA4010E949304A82EA818CA
:10077000FB2DFF777F2E76FE0BC0372D3E7FA51415
:1007800050F474FE0AC072FC08C0372D3E7E05C0CE
:10079000BA2C372D03C0BA2C01C0B52C34FF0DC0C4
:1007A000FE01EA0DF11D8081803311F4397E09C00C
:1007B00032FF06C0B394B39404C0832F867809F047
:1007C000B39433FD13C030FF06C05A2CB31418F491
:1007D000530C5B18B32CB31468F4B70180E290E0BB
:1007E0003C870E945B04B3943C85F5CFB31410F4AE
:1007F0003B1801C0312C34FF12C0B70180E390E0F8
:100800003C870E945B043C8532FF17C031FD03C06A
:1008100088E790E002C088E590E0B7010CC0832F24
:10082000867859F031FF02C08BE201C080E237FDCB
:100830008DE2B70190E00E945B04A51438F4B70183
:1008400080E390E00E945B045A94F7CFAA94F401ED
:10085000EA0DF11D8081B70190E00E945B04A110B8
:10086000F5CF332009F451CEB70180E290E00E9429
:100870005B043A94F6CFF7018681978102C08FEF2F
:100880009FEF2C96E2E10C940D05FC010590615060
:1008900070400110D8F7809590958E0F9F1F089596
:1008A000FC016150704001900110D8F7809590953F
:1008B0008E0F9F1F08950F931F93CF93DF93FB011C
:1008C000238121FD03C08FEF9FEF28C022FF16C0B8
:1008D00046815781248135814217530744F4A08112
:1008E000B1819D012F5F3F4F318320838C932681FF
:1008F00037812F5F3F4F3783268310C0EB01092FCD
:10090000182F0084F185E02D0995892BE1F68E8161
:100910009F8101969F838E83812F902FDF91CF91AE
:100920001F910F910895FA01AA27283051F1203123
:1009300081F1E8946F936E7F6E5F7F4F8F4F9F4F73
:10094000AF4FB1E03ED0B4E03CD0670F781F891FB5
:100950009A1FA11D680F791F8A1F911DA11D6A0F83
:10096000711D811D911DA11D20D009F468943F9136
:100970002AE0269F11243019305D3193DEF6CF0135
:100980000895462F4770405D4193B3E00FD0C9F7FB
:10099000F6CF462F4F70405D4A3318F0495D31FD68
:1009A0004052419302D0A9F7EACFB4E0A6959795BB
:1009B000879577956795BA95C9F700976105710591
:1009C00008959B01AC010A2E0694579547953795DB
:1009D0002795BA95C9F7620F731F841F951FA01D35
:1009E00008952F923F924F925F926F927F928F92D3
:1009F0009F92AF92BF92CF92DF92EF92FF920F93AE
:100A00001F93CF93DF93CDB7DEB7CA1BDB0B0FB6B7
:100A1000F894DEBF0FBECDBF09942A883988488874
:100A20005F846E847D848C849B84AA84B984C8840A
:100A3000DF80EE80FD800C811B81AA81B981CE0F01
:100A4000D11D0FB6F894DEBF0FBECDBFED010895E6
:040A5000F894FFCF48
:100A54006101000000030000000023012A010000DE
:100A6400000000010000000000002A010000000056
:100A740000020000000023010000000041726475C0
:100A8400696E6F2072656365697665643A202564D2
:100A94000D0A0009090941726475696E6F20736556
:100AA4006E64696E67206261636B3A2025630D0A88
:100AB4000048656C6C6F20576F726C64210073651D
:100AC4006E736F7225643A256C75000A0D00493205
:100AD4004320696E697469616C697A6174696F6EC7
:0A0AE40020646F6E652E2E2E0D00AB
:00000001FF
