:100000000C9434000C9451000C9451000C94510049
:100010000C9451000C9451000C9451000C9451001C
:100020000C9451000C9451000C9451000C9451000C
:100030000C9451000C9451000C9451000C945100FC
:100040000C9451000C9451000C9451000C945100EC
:100050000C9451000C9451000C9451000C945100DC
:100060000C9451000C94510011241FBECFEFD8E026
:10007000DEBFCDBF11E0A0E0B1E0ECE5FBE002C0E7
:1000800005900D92A833B107D9F721E0A8E3B1E0BC
:1000900001C01D92AE33B207E1F70E9412020C9428
:1000A000AC050C9400009091C00095FFFCCF8093AC
:1000B000C60008958091C00087FFFCCF8091C600E4
:1000C00008950895389A409A089540980895399A65
:1000D000419A08954198089587B1836087B988B19E
:1000E000836088B9089588B18C7F88B9089588E4C1
:1000F0008093B80008951092BC0094EA9093BC00DD
:100100009091BC0097FFFCCF9091B900987F9830F8
:1001100011F081E008958093BB0084E88093BC00D7
:100120008091BC0087FFFCCF8091B900887F883127
:1001300011F0803471F780E008958093BB0084E86B
:100140008093BC008091BC0087FFFCCF9091B900E8
:10015000987F81E0983209F0089580E0089584EC5A
:100160008093BC008091BC0087FFFCCF8091BB00D6
:10017000089584E88093BC008091BC0087FFFCCF89
:100180008091BB0008950F931F93CF93DF9300D00E
:10019000CDB7DEB78A0169837A830E947B006981CB
:1001A0007A81811123C001151105B1F0FB01AF0166
:1001B000400F511F24E891919093BB002093BC0005
:1001C0009091BC0097FFFCCF9091B900987F983236
:1001D00069F4E417F50779F794E99093BC000F9060
:1001E0000F90DF91CF911F910F91089581E00F90B3
:1001F0000F90DF91CF911F910F9108950F931F934F
:10020000CF93DF9300D0CDB7DEB78A0181606983D9
:100210007A830E947B0069817A81811127C0D8018D
:10022000119761F1FB01AE0FBF1F24EC2093BC00BE
:100230009091BC0097FFFCCF9091BB009193EA177F
:10024000FB07A1F794E89093BC009091BC0097FF46
:10025000FCCF9091BB009C9394E99093BC000F90CD
:100260000F90DF91CF911F910F91089581E00F9032
:100270000F90DF91CF911F910F910895DB01E2CF95
:100280000F931F93CF93DF9300D01F92CDB7DEB7AC
:1002900089014A835B8369830E947B004A815B8179
:1002A000698181112FC06093BB0094E89093BC00DA
:1002B0009091BC0097FFFCCF9091B90001151105FA
:1002C000B1F0FA019A01200F311F44E89191909307
:1002D000BB004093BC009091BC0097FFFCCF909175
:1002E000B900987F983271F4E217F30779F794E92F
:1002F0009093BC000F900F900F90DF91CF911F91C2
:100300000F91089581E00F900F900F90DF91CF91A2
:100310001F910F910895CF92DF92FF920F931F9339
:10032000CF93DF931F92CDB7DEB7182FF42E052F92
:10033000690169830E947B006981811133C06093E8
:10034000BB0084E88093BC009091BC0097FFFCCF79
:100350008091B900812F81600E947B00811122C0B1
:10036000D601119749F1EF2DF02FAE0FBF1F24ECEE
:100370002093BC009091BC0097FFFCCF9091BB00F4
:100380009193EA17FB07A1F794E89093BC00909132
:10039000BC0097FFFCCF9091BB009C9394E9909395
:1003A000BC0001C081E00F90DF91CF911F910F91B0
:1003B000FF90DF90CF900895AF2DB02FE5CF84E967
:1003C0008093BC0008951092C50080E18093C40022
:1003D000E0ECF0E080818260808386E08093C20060
:1003E00088E18093C100089590917C00907F909364
:1003F0007C0090917C00892B80937C0080917A0016
:10040000806480937A0080917A0084FDFCCF2091F3
:1004100078003091790090917A00906190937A0001
:10042000C90108951092C50080E18093C4008091B5
:10043000C00082608093C00086E08093C20088E1A3
:100440008093C1008CE191E090933B0180933A014D
:100450008EE091E0909339018093380184B18360FC
:1004600084B9289A2998F89480917A0087608093BB
:100470007A0080917C00806480937C0080917A0077
:10048000806880937A0080917A00806480937A00FB
:100490007894C1E005C08D36A1F085B18C2785B96F
:1004A00080913801909139010E94A302803769F050
:1004B0008C3689F787B1836087B988B1836088B942
:1004C000ECCF88B18C7F88B9E8CFF12CE12C0AE21F
:1004D00011E013C021E0F21629F0399A419AFF2465
:1004E000F394E12C8FEF91EE24E081509040204076
:1004F000E1F700C000004198409882E00E94F401BA
:10050000EC01DF938F931F930F930E94E1020F90F2
:100510000F900F900F90CA3892E0D907D8F6CA5FB3
:10052000D10991E0CA3FD10508F090E081E0E110E7
:1005300080E09923B9F28823A9F2389A409AF12CE5
:10054000EE24E394CFCFCF93DF93EC012B8120FFF8
:1005500033C026FF0AC02F7B2B838E819F8101969B
:100560009F838E838A8190E029C022FF0FC0E8819B
:10057000F9818081082E000C990B009719F42062F4
:100580002B831AC03196F983E8830EC0EA85FB8578
:10059000099597FF09C02B81019611F080E201C0F7
:1005A00080E1822B8B8308C02E813F812F5F3F4FDC
:1005B0003F832E83992702C08FEF9FEFDF91CF916A
:1005C0000895A0E0B0E0E7EEF2E00C948505AE01FE
:1005D0004B5F5F4FFA0161917191AF0180913A01D8
:1005E00090913B010E94F702E2E00C94A105ACE07F
:1005F000B0E0EDEFF2E00C9475057C016B018A012F
:10060000FC0117821682838181FFBDC1CE01019654
:100610004C01F7019381F60193FD859193FF819140
:100620006F01882309F4ABC1853239F493FD8591BC
:1006300093FF81916F01853229F4B70190E00E9408
:10064000DF04E7CF512C312C20E02032A0F48B3294
:1006500069F030F4803259F0833269F420612CC0A3
:100660008D3239F0803339F4216026C02260246055
:1006700023C0286021C027FD27C030ED380F3A3055
:1006800078F426FF06C0FAE05F9E300D1124532E49
:1006900013C08AE0389E300D1124332E20620CC026
:1006A0008E3221F426FD6BC1206406C08C3611F415
:1006B000206802C0883641F4F60193FD859193FFCE
:1006C00081916F018111C1CF982F9F7D95549330F7
:1006D00028F40C5F1F4FFFE3F9830DC0833631F020
:1006E000833771F0833509F05BC022C0F801808147
:1006F00089830E5F1F4F44244394512C540115C02D
:100700003801F2E06F0E711CF801A080B18026FF65
:1007100003C0652D70E002C06FEF7FEFC5012C872D
:100720000E94D4042C0183012C852F77222E17C020
:100730003801F2E06F0E711CF801A080B18026FF35
:1007400003C0652D70E002C06FEF7FEFC5012C87FD
:100750000E94C9042C012C852068222E830123FCD1
:100760001BC0832D90E048165906B0F4B70180E213
:1007700090E00E94DF043A94F4CFF50127FC8591C4
:1007800027FE81915F01B70190E00E94DF043110E4
:100790003A94F1E04F1A51084114510471F7E5C041
:1007A000843611F0893639F5F80127FF07C06081DA
:1007B0007181828193810C5F1F4F08C060817181BC
:1007C000072E000C880B990B0E5F1F4F2F76722E91
:1007D00097FF09C090958095709561957F4F8F4FD9
:1007E0009F4F2068722E2AE030E0A4010E94170576
:1007F000A82EA81844C0853729F42F7EB22E2AE0EF
:1008000030E025C0F22FF97FBF2E8F36C1F018F4EB
:10081000883579F0B4C0803719F0883721F0AFC03F
:100820002F2F2061B22EB4FE0DC08B2D8460B82E08
:1008300009C024FF0AC09F2F9660B92E06C028E089
:1008400030E005C020E130E002C020E132E0F801F4
:10085000B7FE07C060817181828193810C5F1F4F59
:1008600006C06081718180E090E00E5F1F4FA4019F
:100870000E941705A82EA818FB2DFF777F2E76FE65
:100880000BC0372D3E7FA51450F474FE0AC072FCD5
:1008900008C0372D3E7E05C0BA2C372D03C0BA2CB8
:1008A00001C0B52C34FF0DC0FE01EA0DF11D8081A1
:1008B000803311F4397E09C032FF06C0B394B3947B
:1008C00004C0832F867809F0B39433FD13C030FF42
:1008D00006C05A2CB31418F4530C5B18B32CB31481
:1008E00068F4B70180E290E03C870E94DF04B39493
:1008F0003C85F5CFB31410F43B1801C0312C34FF04
:1009000012C0B70180E390E03C870E94DF043C8581
:1009100032FF17C031FD03C088E790E002C088E5D0
:1009200090E0B7010CC0832F867859F031FF02C0E8
:100930008BE201C080E237FD8DE2B70190E00E94BA
:10094000DF04A51438F4B70180E390E00E94DF04CF
:100950005A94F7CFAA94F401EA0DF11D8081B701F2
:1009600090E00E94DF04A110F5CF332009F451CEAE
:10097000B70180E290E00E94DF043A94F6CFF701DD
:100980008681978102C08FEF9FEF2C96E2E10C9455
:100990009105FC010590615070400110D8F78095D9
:1009A00090958E0F9F1F0895FC016150704001903B
:1009B0000110D8F7809590958E0F9F1F08950F9383
:1009C0001F93CF93DF93FB01238121FD03C08FEFA2
:1009D0009FEF28C022FF16C04681578124813581B0
:1009E0004217530744F4A081B1819D012F5F3F4F0F
:1009F000318320838C93268137812F5F3F4F37834C
:100A0000268310C0EB01092F182F0084F185E02DFB
:100A10000995892BE1F68E819F8101969F838E83B4
:100A2000812F902FDF91CF911F910F910895FA019F
:100A3000AA27283051F1203181F1E8946F936E7F1D
:100A40006E5F7F4F8F4F9F4FAF4FB1E03ED0B4E00E
:100A50003CD0670F781F891F9A1FA11D680F791F4F
:100A60008A1F911DA11D6A0F711D811D911DA11D60
:100A700020D009F468943F912AE0269F1124301970
:100A8000305D3193DEF6CF010895462F4770405D0B
:100A90004193B3E00FD0C9F7F6CF462F4F70405DBA
:100AA0004A3318F0495D31FD4052419302D0A9F715
:100AB000EACFB4E0A6959795879577956795BA950F
:100AC000C9F700976105710508959B01AC010A2ED5
:100AD00006945795479537952795BA95C9F7620FAC
:100AE000731F841F951FA01D08952F923F924F9250
:100AF0005F926F927F928F929F92AF92BF92CF92AE
:100B0000DF92EF92FF920F931F93CF93DF93CDB7B6
:100B1000DEB7CA1BDB0B0FB6F894DEBF0FBECDBF2E
:100B200009942A88398848885F846E847D848C84FF
:100B30009B84AA84B984C884DF80EE80FD800C8108
:100B40001B81AA81B981CE0FD11D0FB6F894DEBFEB
:0C0B50000FBECDBFED010895F894FFCF5B
:100B5C00000000030000000053005A0000000000D9
:100B6C0000010000000000005A000000000000021C
:100B7C000000000053000000000061646356616CCB
:080B8C003A2025640D0A000067
:00000001FF
