:100000000C9434000C9451000C9451000C94510049
:100010000C9451000C9451000C9451000C9451001C
:100020000C9451000C9451000C9451000C9451000C
:100030000C9451000C9451000C9451000C945100FC
:100040000C9451000C9451000C9451000C945100EC
:100050000C9451000C9451000C9451000C945100DC
:100060000C9451000C94510011241FBECFEFD8E026
:10007000DEBFCDBF11E0A0E0B1E0ECEDF9E002C0E1
:1000800005900D92AC34B107D9F721E0ACE4B1E0B2
:1000900001C01D92A535B207E1F70E94CB010C9477
:1000A000EC040C9400009091C00095FFFCCF80936D
:1000B000C60008958091C00087FFFCCF8091C600E4
:1000C00008951092C50080E18093C400E0ECF0E058
:1000D00080818260808386E08093C20088E1809383
:1000E000C1000895EF92FF920F931F93CF93DF9378
:1000F000EC017C0188E0E80EF11C07E411E0888146
:10010000998122969F938F931F930F930E94F101E1
:100110000F900F900F900F90CE15DF0581F7DF91B4
:10012000CF911F910F91FF90EF90089588E48093F5
:10013000B80008951092BC0094EA9093BC0090918E
:10014000BC0097FFFCCF9091B900987F983011F0D8
:1001500081E008958093BB0084E88093BC00809187
:10016000BC0087FFFCCF8091B900887F883111F0F7
:10017000803471F780E008958093BB0084E8809319
:10018000BC008091BC0087FFFCCF9091B900987FA4
:1001900081E0983209F480E0089584EC8093BC00FB
:1001A0008091BC0087FFFCCF8091BB00089584E85C
:1001B0008093BC008091BC0087FFFCCF8091BB0086
:1001C0000895CF92DF92EF92FF921F93CF93DF9328
:1001D00000D0CDB7DEB77A0169837A830E949A0096
:1001E000182F69817A8181110DC06B01EC0CFD1C07
:1001F000CE14DF0449F0F60181916F010E94BC002A
:100200008823B1F311E003C084E98093BC00812FFF
:100210000F900F90DF91CF911F91FF90EF90DF90A3
:10022000CF900895AF92BF92CF92DF92FF920F933B
:100230001F93CF93DF936B018A0181600E949A0024
:10024000F82E811118C05601E8012197C5018C19BB
:100250009D098C179D0730F40E94CD00F501819314
:100260005F01F4CFCC0DDD1D0E94D700888384E9A7
:100270008093BC0002C0FF24F3948F2DDF91CF91B7
:100280001F910F91FF90DF90CF90BF90AF90089596
:10029000AF92BF92DF92EF92FF920F931F93CF9393
:1002A000DF931F92CDB7DEB7D42E052F7901698376
:1002B0000E949A00182F6981882311F011E015C05F
:1002C000862F0E94BC00AD2CB02EEA0CFB1CAE1495
:1002D000BF0441F0F50181915F010E94BC008823B9
:1002E000B1F3ECCF84E98093BC00812F0F90DF91B4
:1002F000CF911F910F91FF90EF90DF90BF90AF9043
:100300000895AF92BF92CF92DF92FF920F931F9307
:10031000CF93DF931F92CDB7DEB7F82E6A01890124
:1003200069830E949A006981882319F0FF24F3945D
:1003300022C0862F0E94BC008F2D81600E949A00EF
:10034000F82E8111F3CF560101501109C5018C1906
:100350009D098017910730F40E94CD00F50181932B
:100360005F01F4CFC00ED11E0E94D700F60180833A
:1003700084E98093BC008F2D0F90DF91CF911F9166
:100380000F91FF90DF90CF90BF90AF90089584E9D8
:100390008093BC000895259A2D980E9461008CE1FD
:1003A00091E090935201809351018EE091E09093FF
:1003B000500180934F010E9496008AE291E00E94D2
:1003C000070284E00E949A008BE391E00E940702FA
:1003D00081E00E94BC0088E00E94BC000E94C7012E
:1003E000ECCFA0E0B0E0E7EFF1E00C94C504AE0183
:1003F0004B5F5F4FFA0161917191AF0180915101A3
:10040000909152010E943702E2E00C94E1040F93B4
:100410001F93CF93DF93E0915101F091520123811B
:1004200021FF1BC08C01D0E0C0E0F80181918F0159
:100430006091510170915201DB011896ED91FC9190
:100440001997882331F00995892B79F3DFEFCFEFE6
:10045000ECCF8AE00995892B19F08FEF9FEF02C04E
:100460008D2F9C2FDF91CF911F910F910895ACE0BC
:10047000B0E0EDE3F2E00C94B5047C016B018A017D
:10048000FC0117821682838181FFBDC1CE010196D6
:100490004C01F7019381F60193FD859193FF8191C2
:1004A0006F01882309F4ABC1853239F493FD85913E
:1004B00093FF81916F01853229F4B70190E00E948A
:1004C0001F04E7CF512C312C20E02032A0F48B32D6
:1004D00069F030F4803259F0833269F420612CC025
:1004E0008D3239F0803339F4216026C022602460D7
:1004F00023C0286021C027FD27C030ED380F3A30D7
:1005000078F426FF06C0FAE05F9E300D1124532ECA
:1005100013C08AE0389E300D1124332E20620CC0A7
:100520008E3221F426FD6BC1206406C08C3611F496
:10053000206802C0883641F4F60193FD859193FF4F
:1005400081916F018111C1CF982F9F7D9554933078
:1005500028F40C5F1F4FFFE3F9830DC0833631F0A1
:10056000833771F0833509F05BC022C0F8018081C8
:1005700089830E5F1F4F44244394512C540115C0AE
:100580003801F2E06F0E711CF801A080B18026FFE7
:1005900003C0652D70E002C06FEF7FEFC5012C87AF
:1005A0000E9414042C0183012C852F77222E17C062
:1005B0003801F2E06F0E711CF801A080B18026FFB7
:1005C00003C0652D70E002C06FEF7FEFC5012C877F
:1005D0000E9409042C012C852068222E830123FC13
:1005E0001BC0832D90E048165906B0F4B70180E295
:1005F00090E00E941F043A94F4CFF50127FC859106
:1006000027FE81915F01B70190E00E941F04311025
:100610003A94F1E04F1A51084114510471F7E5C0C2
:10062000843611F0893639F5F80127FF07C060815B
:100630007181828193810C5F1F4F08C0608171813D
:10064000072E000C880B990B0E5F1F4F2F76722E12
:1006500097FF09C090958095709561957F4F8F4F5A
:100660009F4F2068722E2AE030E0A4010E945704B8
:10067000A82EA81844C0853729F42F7EB22E2AE070
:1006800030E025C0F22FF97FBF2E8F36C1F018F46D
:10069000883579F0B4C0803719F0883721F0AFC0C1
:1006A0002F2F2061B22EB4FE0DC08B2D8460B82E8A
:1006B00009C024FF0AC09F2F9660B92E06C028E00B
:1006C00030E005C020E130E002C020E132E0F80176
:1006D000B7FE07C060817181828193810C5F1F4FDB
:1006E00006C06081718180E090E00E5F1F4FA40121
:1006F0000E945704A82EA818FB2DFF777F2E76FEA8
:100700000BC0372D3E7FA51450F474FE0AC072FC56
:1007100008C0372D3E7E05C0BA2C372D03C0BA2C39
:1007200001C0B52C34FF0DC0FE01EA0DF11D808122
:10073000803311F4397E09C032FF06C0B394B394FC
:1007400004C0832F867809F0B39433FD13C030FFC3
:1007500006C05A2CB31418F4530C5B18B32CB31402
:1007600068F4B70180E290E03C870E941F04B394D4
:100770003C85F5CFB31410F43B1801C0312C34FF85
:1007800012C0B70180E390E03C870E941F043C85C3
:1007900032FF17C031FD03C088E790E002C088E552
:1007A00090E0B7010CC0832F867859F031FF02C06A
:1007B0008BE201C080E237FD8DE2B70190E00E943C
:1007C0001F04A51438F4B70180E390E00E941F04D1
:1007D0005A94F7CFAA94F401EA0DF11D8081B70174
:1007E00090E00E941F04A110F5CF332009F451CEF0
:1007F000B70180E290E00E941F043A94F6CFF7011F
:100800008681978102C08FEF9FEF2C96E2E10C94D6
:10081000D104FC010590615070400110D8F780951B
:1008200090958E0F9F1F0895FC01615070400190BC
:100830000110D8F7809590958E0F9F1F08950F9304
:100840001F93CF93DF93FB01238121FD03C08FEF23
:100850009FEF28C022FF16C0468157812481358131
:100860004217530744F4A081B1819D012F5F3F4F90
:10087000318320838C93268137812F5F3F4F3783CD
:10088000268310C0EB01092F182F0084F185E02D7D
:100890000995892BE1F68E819F8101969F838E8336
:1008A000812F902FDF91CF911F910F910895FA0121
:1008B000AA27283051F1203181F1E8946F936E7F9F
:1008C0006E5F7F4F8F4F9F4FAF4FB1E03ED0B4E090
:1008D0003CD0670F781F891F9A1FA11D680F791FD1
:1008E0008A1F911DA11D6A0F711D811D911DA11DE2
:1008F00020D009F468943F912AE0269F11243019F2
:10090000305D3193DEF6CF010895462F4770405D8C
:100910004193B3E00FD0C9F7F6CF462F4F70405D3B
:100920004A3318F0495D31FD4052419302D0A9F796
:10093000EACFB4E0A6959795879577956795BA9590
:10094000C9F700976105710508959B01AC010A2E56
:1009500006945795479537952795BA95C9F7620F2D
:10096000731F841F951FA01D08952F923F924F92D1
:100970005F926F927F928F929F92AF92BF92CF922F
:10098000DF92EF92FF920F931F93CF93DF93CDB738
:10099000DEB7CA1BDB0B0FB6F894DEBF0FBECDBFB0
:1009A00009942A88398848885F846E847D848C8481
:1009B0009B84AA84B984C884DF80EE80FD800C818A
:1009C0001B81AA81B981CE0FD11D0FB6F894DEBF6D
:0C09D0000FBECDBFED010895F894FFCFDD
:1009DC00000000030000000053005A00000000005B
:1009EC0000010000000000005A000000000000029E
:1009FC0000000000530000000000456E7465726535
:100A0C0064206C6F6F702E2E2E0D00496E206C6F53
:0C0A1C006F702E2E2E0D0025640D0A00B8
:00000001FF
