:100000000C9434000C9451000C9451000C94510049
:100010000C9451000C9451000C9451000C9451001C
:100020000C9451000C9451000C9451000C9451000C
:100030000C9451000C9451000C9451000C945100FC
:100040000C9451000C9451000C9451000C945100EC
:100050000C9451000C9451000C9451000C945100DC
:100060000C9451000C94510011241FBECFEFD8E026
:10007000DEBFCDBF11E0A0E0B1E0E6EDFCE002C0E4
:1000800005900D92A833B107D9F721E0A8E3B1E0BC
:1000900001C01D92A634B207E1F70E949C020C94A5
:1000A00069060C94000088E48093B80008951092CB
:1000B000BC0094EA9093BC009091BC0097FFFCCFE9
:1000C0009091B900987F983011F081E00895809365
:1000D000BB0084E88093BC008091BC0087FFFCCF0C
:1000E0008091B900887F883111F0803471F780E009
:1000F00008958093BB0084E88093BC008091BC008D
:1001000087FFFCCF9091B900987F81E0983209F089
:10011000089580E0089584EC8093BC008091BC0039
:1001200087FFFCCF8091BB00089584E88093BC00DA
:100130008091BC0087FFFCCF8091BB0008950F9396
:100140001F93CF93DF9300D0CDB7DEB78A016983C9
:100150007A830E94570069817A81811123C0011539
:100160001105B1F0FB01AF01400F511F24E891913F
:100170009093BB002093BC009091BC0097FFFCCFF4
:100180009091B900987F983269F4E417F50779F7F0
:1001900094E99093BC000F900F90DF91CF911F9145
:1001A0000F91089581E00F900F90DF91CF911F91F3
:1001B0000F9108950F931F93CF93DF9300D0CDB786
:1001C000DEB78A01816069837A830E945700698162
:1001D0007A81811127C0D801119761F1FB01AE0F1F
:1001E000BF1F24EC2093BC009091BC0097FFFCCF74
:1001F0009091BB009193EA17FB07A1F794E89093C5
:10020000BC009091BC0097FFFCCF9091BB009C93E9
:1002100094E99093BC000F900F90DF91CF911F91C4
:100220000F91089581E00F900F90DF91CF911F9172
:100230000F910895DB01E2CF0F931F93CF93DF93CC
:1002400000D01F92CDB7DEB789014A835B836983F3
:100250000E9457004A815B81698181112FC06093A0
:10026000BB0094E89093BC009091BC0097FFFCCF3A
:100270009091B90001151105B1F0FA019A01200F12
:10028000311F44E891919093BB004093BC00909142
:10029000BC0097FFFCCF9091B900987F983271F421
:1002A000E217F30779F794E99093BC000F900F9051
:1002B0000F90DF91CF911F910F91089581E00F90E2
:1002C0000F900F90DF91CF911F910F910895CF92D2
:1002D000DF92FF920F931F93CF93DF931F92CDB7BF
:1002E000DEB7182FF42E052F690169830E9457008D
:1002F0006981811133C06093BB0084E88093BC00A6
:100300009091BC0097FFFCCF8091B900812F816054
:100310000E945700811122C0D601119749F1EF2D9B
:10032000F02FAE0FBF1F24EC2093BC009091BC00B7
:1003300097FFFCCF9091BB009193EA17FB07A1F7C1
:1003400094E89093BC009091BC0097FFFCCF9091F3
:10035000BB009C9394E99093BC0001C081E00F9096
:10036000DF91CF911F910F91FF90DF90CF90089573
:10037000AF2DB02FE5CF84E98093BC000895909114
:100380007C00907F90937C0090917C00892B8093DF
:100390007C0080917A00806480937A0080917A005A
:1003A00084FDFCCF209178003091790090917A0003
:1003B000906190937A00C9010895FC018AE090E071
:1003C0009183808384E190E0938382838EE190E047
:1003D0009583848388E290E09783868308950895C7
:1003E000389A409A089540980895399A419A089504
:1003F0004198089587B1836087B988B1836088B9CF
:10040000089588B18C7F88B908959091C00095FFB8
:10041000FCCF8093C60008958091C00087FFFCCF79
:100420008091C60008951092C50080E18093C400B9
:10043000E0ECF0E080818260808386E08093C200FF
:1004400088E18093C10008955F926F927F928F92AE
:100450009F92AF92BF92CF92DF92EF92FF920F9353
:100460001F93CF93DF9300D000D0CDB7DEB76C01E0
:100470005C0188E0A80EB11C01E010E08DEC582E64
:1004800095E0892E912C7E0196E0E90EF11C360153
:100490004AE0BE016F5F7F4FF601819191916F013C
:1004A0000E942B03F3019081992351F0959D912D8A
:1004B00011249695969596950F5F1F4F9111F6CF43
:1004C00098012150310937FD35C0F401E01BF10BD3
:1004D00081E090E08C0F9D1FE80FF91F81919091B2
:1004E000C00095FFFCCF8093C600EE15FF05B1F765
:1004F000F901E01BF10B8F018091C00085FFFCCF5B
:100500008AE08093C600CA14DB0409F60F900F90AE
:100510000F900F90DF91CF911F910F91FF90EF906F
:10052000DF90CF90BF90AF909F908F907F906F9013
:100530005F9008958901E0CF0E9413028CE191E061
:1005400090934301809342018EE091E090934101AA
:100550008093400184B1836084B9289A2998F894E3
:1005600080917A00876080937A0080917C0080641B
:1005700080937C0080917A00806880937A008091DB
:100580007A00806480937A007894C1E00CC08C3645
:1005900009F45EC08D3609F458C0863609F44CC0A3
:1005A00085B18C2785B980914001909141010E94CD
:1005B0005003803761F7F12CE12C0AE211E00DC005
:1005C0008FEF91EE24E0815090402040E1F700C091
:1005D00000000E94F8010E94F30182E00E94BF0126
:1005E000EC01DF938F931F930F930E948E030F9064
:1005F0000F900F900F90CA3892E0D90748F021E091
:10060000F216F1F20E94F501FF24F394E12CD8CF09
:10061000CA5FD10991E0CA3FD10508F090E081E0BE
:10062000E11080E0992361F2882351F20E94F001E9
:10063000F12CEE24E394C4CF88E391E00E94DD0125
:1006400088E391E00E942402ABCF0E940102A8CF70
:100650000E94FA01A5CFBB274A3031F4992322F436
:10066000BDE2909581959F4F0C943703BB27FB010A
:100670005527AA27880F991FAA1FA41710F0A41B9B
:1006800083955051B9F7A05DAA3308F0A95DA193F5
:10069000009779F7B111B1931192CB010C948C05AD
:1006A000CF93DF93EC012B8120FF33C026FF0AC0DC
:1006B0002F7B2B838E819F8101969F838E838A81DE
:1006C00090E029C022FF0FC0E881F9818081082EC7
:1006D000000C990B009719F420622B831AC03196F5
:1006E000F983E8830EC0EA85FB85099597FF09C069
:1006F0002B81019611F080E201C080E1822B8B8377
:1007000008C02E813F812F5F3F4F3F832E83992763
:1007100002C08FEF9FEFDF91CF910895A0E0B0E08E
:10072000E4E9F3E00C944206AE014B5F5F4FFA013F
:1007300061917191AF0180914201909143010E94BA
:10074000A403E2E00C945E06ACE0B0E0EAEAF3E079
:100750000C9432067C016B018A01FC01178216821F
:10076000838181FFBDC1CE0101964C01F7019381C8
:10077000F60193FD859193FF81916F01882309F420
:10078000ABC1853239F493FD859193FF81916F015F
:10079000853229F4B70190E00E949C05E7CF512CE7
:1007A000312C20E02032A0F48B3269F030F480321A
:1007B00059F0833269F420612CC08D3239F08033D6
:1007C00039F4216026C02260246023C0286021C043
:1007D00027FD27C030ED380F3A3078F426FF06C0E9
:1007E000FAE05F9E300D1124532E13C08AE0389E2C
:1007F000300D1124332E20620CC08E3221F426FDE0
:100800006BC1206406C08C3611F4206802C08836A3
:1008100041F4F60193FD859193FF81916F01811160
:10082000C1CF982F9F7D9554933028F40C5F1F4FB4
:10083000FFE3F9830DC0833631F0833771F08335E0
:1008400009F05BC022C0F801808189830E5F1F4FD1
:1008500044244394512C540115C03801F2E06F0E2A
:10086000711CF801A080B18026FF03C0652D70E0E7
:1008700002C06FEF7FEFC5012C870E9481052C011C
:1008800083012C852F77222E17C03801F2E06F0EDE
:10089000711CF801A080B18026FF03C0652D70E0B7
:1008A00002C06FEF7FEFC5012C870E9476052C01F7
:1008B0002C852068222E830123FC1BC0832D90E011
:1008C00048165906B0F4B70180E290E00E949C05FA
:1008D0003A94F4CFF50127FC859127FE81915F01C1
:1008E000B70190E00E949C0531103A94F1E04F1A54
:1008F00051084114510471F7E5C0843611F089366E
:1009000039F5F80127FF07C06081718182819381E9
:100910000C5F1F4F08C060817181072E000C880B8F
:10092000990B0E5F1F4F2F76722E97FF09C090957F
:100930008095709561957F4F8F4F9F4F2068722EE5
:100940002AE030E0A4010E94D405A82EA81844C0D3
:10095000853729F42F7EB22E2AE030E025C0F22F11
:10096000F97FBF2E8F36C1F018F4883579F0B4C006
:10097000803719F0883721F0AFC02F2F2061B22EB9
:10098000B4FE0DC08B2D8460B82E09C024FF0AC0B0
:100990009F2F9660B92E06C028E030E005C020E108
:1009A00030E002C020E132E0F801B7FE07C060810C
:1009B0007181828193810C5F1F4F06C060817181BC
:1009C00080E090E00E5F1F4FA4010E94D405A82E86
:1009D000A818FB2DFF777F2E76FE0BC0372D3E7FAC
:1009E000A51450F474FE0AC072FC08C0372D3E7E78
:1009F00005C0BA2C372D03C0BA2C01C0B52C34FF6A
:100A00000DC0FE01EA0DF11D8081803311F4397EA5
:100A100009C032FF06C0B394B39404C0832F867814
:100A200009F0B39433FD13C030FF06C05A2CB31441
:100A300018F4530C5B18B32CB31468F4B70180E2BC
:100A400090E03C870E949C05B3943C85F5CFB3149D
:100A500010F43B1801C0312C34FF12C0B70180E301
:100A600090E03C870E949C053C8532FF17C031FD19
:100A700003C088E790E002C088E590E0B7010CC0B1
:100A8000832F867859F031FF02C08BE201C080E2EB
:100A900037FD8DE2B70190E00E949C05A51438F463
:100AA000B70180E390E00E949C055A94F7CFAA9486
:100AB000F401EA0DF11D8081B70190E00E949C05D0
:100AC000A110F5CF332009F451CEB70180E290E0B8
:100AD0000E949C053A94F6CFF7018681978102C067
:100AE0008FEF9FEF2C96E2E10C944E06FC010590EF
:100AF000615070400110D8F7809590958E0F9F1F20
:100B00000895FC016150704001900110D8F7809564
:100B100090958E0F9F1F0895DC01FC01672F719146
:100B20007723E1F7329704C07C916D9370836291D3
:100B3000AE17BF07C8F308950F931F93CF93DF93AA
:100B4000FB01238121FD03C08FEF9FEF28C022FF0F
:100B500016C046815781248135814217530744F4DA
:100B6000A081B1819D012F5F3F4F318320838C9302
:100B7000268137812F5F3F4F3783268310C0EB01DB
:100B8000092F182F0084F185E02D0995892BE1F6B6
:100B90008E819F8101969F838E83812F902FDF917D
:100BA000CF911F910F910895FA01AA27283051F192
:100BB000203181F1E8946F936E7F6E5F7F4F8F4F8E
:100BC0009F4FAF4FB1E03ED0B4E03CD0670F781FED
:100BD000891F9A1FA11D680F791F8A1F911DA11DD2
:100BE0006A0F711D811D911DA11D20D009F468940B
:100BF0003F912AE0269F11243019305D3193DEF6B3
:100C0000CF010895462F4770405D4193B3E00FD068
:100C1000C9F7F6CF462F4F70405D4A3318F0495D53
:100C200031FD4052419302D0A9F7EACFB4E0A69536
:100C30009795879577956795BA95C9F70097610558
:100C4000710508959B01AC010A2E069457954795AE
:100C500037952795BA95C9F7620F731F841F951FA3
:100C6000A01D08952F923F924F925F926F927F92B4
:100C70008F929F92AF92BF92CF92DF92EF92FF92AC
:100C80000F931F93CF93DF93CDB7DEB7CA1BDB0B58
:100C90000FB6F894DEBF0FBECDBF09942A883988FD
:100CA00048885F846E847D848C849B84AA84B98404
:100CB000C884DF80EE80FD800C811B81AA81B98110
:100CC000CE0FD11D0FB6F894DEBF0FBECDBFED0124
:060CD0000895F894FFCF27
:100CD600000000030000000005020C0200000000F6
:100CE60000010000000000000C02000000000002ED
:100CF6000000000005020000000061646356616C9C
:080D06003A2025640D0A0000EB
:00000001FF
